:020000002E2FA1
:10000800FF00030E83018316D4000A08D2008A0178
:1000180070088312A2007108A1007208A0000B1DCD
:100028001E28AE0A8316A30A0319A40A06308312EF
:1000380081000B110C1CBC28FF3083164F0583125E
:100048008E0083165008F000F101FF30700583120E
:100058008F001010E60A8316A10AA20A5A2851082E
:1000680083126602031C472883165108643A031951
:100078003F28831206108312E60183165108643C58
:10008800CE000130A500632883164E08831266024D
:10009800031C592883164E08643A031955288312FD
:1000A80006148312E6018316A50163288316250822
:1000B800003A031933282508013A031948288628E5
:1000C80083164A082102031C76284A08643A031951
:1000D8006F28831286108316A1014A08643CCD005C
:1000E8000330A7008F284D082102031C85284D08DE
:1000F800643A03198128831286148316A1010230F9
:10010800A7008F2883162708023A031964282708AE
:10011800033A03197728B1284B082202031CA128A7
:100128004B08643A03199A28831206118316A20110
:100138004B08643CCC000530A600B9284C082202C4
:10014800031CB0284C08643A0319AC28831206151E
:100158008316A2010430A600B9282608043A031918
:1001680090282608053A0319A228831210140C10A7
:100178002208F0002108F1002008F2008316520836
:0C0188008A00540E8300FF0E7F0E090059
:0C01940000000000000000000000080057
:1001A000243083120313FC00B530FD00FD0BD6286C
:0A01B000FC0BD62800000000080038
:0E01BA00533083120313FD00FD0BE1280800F3
:1001C80083160313EA1BEB2883128613ED28831288
:1001D800861783166A1BF32883120613F5288312E1
:1001E80006178316EA1AFB2883128612FD28831243
:1001F800861683166A1A03298312061205298312A2
:1002080006168316C9190B29831205140D298312A2
:1002180005108615CA2086118316EA191629831235
:10022800861318298312861783166A191E298312C2
:1002380006132029831206178316EA182629831223
:10024800861228298312861683166A182E29831285
:1002580006123029831206168316C9193629831205
:1002680005143829831205108615CA2086118316AD
:0C027800C91D4029D0204129DD200800CC
:1002840083120313F801F9011030FC00710DF80D0D
:10029400F90D7408F8027508031C750FF9020318A8
:1002A4005A297408F80775080318750FF90703101D
:0A02B400F00DF10DFC0B48290800C5
:1002BE00043083120313FC003A30FD00FD0B652958
:0802CE00FC0B6529000008008B
:1002D60083160313E80105306802031879296808B4
:1002E6006707840020308000E80A6E2968086707DF
:1002F60084008001E80368086707E9000A30F40013
:10030600F5016508F0006608F10042217808F00062
:100316007908F1003030F007831669088400700808
:1003260080000A30F400F5016508F0006608F10067
:10033600422170088316E5007108E6000030710658
:10034600031DA72900307006031DAA29AC29E8035E
:040356007E290800F4
:10035A0083160313C9116508EA00E4208316C91538
:02036A00080089
:10036C0083160313E1015D08F1000130F000710800
:10037C000319C429F00D7010FF3EBE297008E0006F
:10038C005C08840070080005F10071080130031D41
:10039C000030F0005F08F0060319ED295E08003C00
:1003AC000318DD295F215F218316DE03D4295C0845
:1003BC00840060080005F10071080130031D003055
:1003CC00F0005F08F0060319ED29FF30E100610829
:0403DC00F000080025
:1003E00083160313E101E2015C08E3005D08E40009
:1003F00080305D06F00080307002031D012A00305D
:100400005C0203180F2A0130E1000030E2005C08B2
:10041000003CE3005D08031C013EE401E4026308C4
:10042000E5006408E6005E08E7006B210630DF00A7
:100430000030E0006008003C031D202A5F08003CFB
:1004400003183B2A5F085E07F20001305F02F000EC
:100450000030031C013E6002F10070085E0784005A
:100460000008F00072088400700880000130DF028C
:10047000031CE0031A2A5E08840020308000610813
:1004800062040319592ADF01E0015F085E07840056
:100490000008203A031D502ADF0A0319E00A452A02
:1004A0000130DF02031CE0035F085E0784002D308B
:0404B00080000800C0
:1004B4006C2A803083160313DC007F2AC030DC00F2
:1004C4007F2A9430DC007F2AD430DC007F2A8030FD
:1004D400DC007F2A831603135C08013A03195B2AA4
:1004E4005C08023A0319602A5C08033A0319632A78
:1004F4005C08043A0319662A692A5D03F0005C0863
:10050400F0077008DC007008EA00E4208316C911C3
:10051400DF015F085E07840000080319992A5F0859
:100524005E0784000008E500AD21DF0A8B2AC915A7
:020534000800BD
:10053600710DF80DF90D7408F8027508031C750F96
:10054600F902F00DF10D0F30FC00710DF80DF90DEB
:100556007408701CB42AF8027508031C750FF9029A
:10056600B92AF80775080318750FF907F00DF10D8C
:10057600FC0BA82A7018C52A7408F8077508031812
:08058600750FF90700000800E1
:10058E00831203137008F100F0010830FC007108AB
:10059E00F40C0318D62AFC0BCF2AF10100340310F9
:1005AE00DB2AF40C0318F107F10CF00CFC0BD82A23
:0205BE00080033
:1005C00083120313F8010830FC00700DF80D740855
:1005D000F8020318ED2AF8070310F00DFC0BE52ACA
:0205E000080011
:0E05E2008316031356088A005508820008008D
:1005F000831203137408003A031D072B7508003A91
:10060000031D072BFF30F0007F30F100602B8312B9
:100610000313FD01F901F801710870040319003496
:1006200071087506FA00FA1BFD09FB01F51F1D2B69
:10063000F409F509F40A0319F50AF11F242BF0094E
:10064000F109F00A0319F10A71087504FA00FA1B9E
:10065000392B9B227B184C2BFD1F0034F009F1092C
:10066000F00A0319F10AF809F909F80A0319F90A55
:100670000034F51F482BF11B442B7108F90070085A
:10068000F800F101F0012C2BF101F001F00A003427
:10069000F109F009FB0A292BF80A0319F90A740871
:1006A0007802031D2C2B75087902031D2C2BF901F0
:1006B000F801F00A0319F10AF11F2C2B0000FF3496
:0206C000080030
:1006C20083160313491F9B2B83125308003A031D01
:1006D200732B83164918732B5708AD005808B900BD
:1006E2005908C10083125308003C03188B2B2B08B6
:1006F2005302F1007108D3007108643C0318822B85
:10070200D301A330FC005530FD00FD0B862BFC0B02
:10071200862B9B2B0430FB002C30FC00AB30FD0001
:10072200FD0B912BFC0B912BFB0B912B000000007E
:10073200831649138316491BAE2B831249085302B1
:100742000318AE2B2B08D307A330FC005530FD0055
:10075200FD0BA92BFC0BA92BB02B83164917080004
:1007620083160313C91CC62BC9105708BF000230D9
:10077200FB004530FC00A930FD00FD0BBE2BFC0B3D
:10078200BE2BFB0BBE2B000000000530DC0004304A
:10079200DD000130DE000130DF00B62170080319F0
:1007A200F02B5A0859020318F02BC9122A08053CEB
:1007B2000318EF2B05305A02F100F201031CF20379
:1007C2008030F000803072067002031DEA2B71083F
:1007D20059020318EF2B0530D907F02BD90A05303F
:1007E200DC000530DD000130DE000130DF00B62123
:1007F200700803190D2C59085B0203180D2C4912BD
:100802002808053C03180C2C5908053C03180C2C2D
:100812000530D9020D2CD9035908DC00DD01C230A4
:10082200DE00F0210230DC000130DD00C230DE00EB
:080832005A225908F0000800E9
:10083A00652C8316031357083907F1007108B900AC
:10084A0058087102031C2A2CA90A7F2C57082D026A
:10085A00F1007108AD0071085702031C362CA90A71
:10086A00AD017F2C57084107F1007108C1005808F3
:10087A007102031C412CA90A7F2C57083902F10086
:10088A007108B90071085702031C4D2CA90AB90155
:10089A007F2C57082D07F1007108AD005808710226
:1008AA00031C582CA90A7F2C57084102F100710831
:1008BA00C10071085702031C642CA901C1017F2CD5
:1008CA00831603132908003A03191E2C2908013A32
:1008DA0003192B2C2908023A0319372C2908033A41
:1008EA000319422C2908043A03194E2C2908053AFF
:0608FA000319592C08004F
:10090000831603134108DC00DD01C230DE00F02154
:100910000230DC000B30DD00C230DE005A22390824
:10092000DC00DD01C230DE00F0210230DC000730E7
:10093000DD00C230DE005A222D08DC00DD01C230AD
:10094000DE00F0210230DC000330DD00C230DE00CA
:100950005A220230DC000130DD00BA30DE005A22BB
:0209600008008D
:1009620083160313531CFD2CC91EB92CC912BF0ACE
:10097200491EBD2C4912BF033F08043A031DC22C75
:10098200BF013F08FF3A031DC82C0330BF00C91F37
:10099200D12C3F08003A0319D12CC9130530BF00EE
:1009A200491DE22C3F08013A0319DF2C3F08023AA5
:1009B200031DDE2C491CDE2CDF2CE22C49110630F3
:1009C200BF004918EC2CC91CEC2C3F08023A031D4D
:1009D200EC2CC9104914491CFD2CC91CFD2C3F08E4
:1009E200023A031DFD2CC91049100130DC00103001
:0A09F200DD00AB30DE005A220800E1
:1009FC00831603133F08003A03192B2D2D08F00022
:100A0C0083125308F400C722FF30F400F501F822DA
:100A1C0070088316D1003908F00083125308F400D3
:100A2C00C722FF30F400F501F82270088316CA00C3
:100A3C004108F00083125308F400C722FF30F40081
:0C0A4C00F501F82270088316CB000800AA
:100A5800831603133F0840060319382D0130EA00B6
:100A6800E42083163F08C000062E53140130DC0032
:100A78000430DD00AE30DE005A22D101CA01CB01BC
:100A88002B2E83124908D300831653140130DC003F
:100A98000530DD004A30DE005A2280242B2E531404
:100AA80083124908D30001308316DC000130DD00D1
:100AB8005430DE005A2280242008D7002008003C49
:100AC800D8001D24491D6B2D49110930BF002B2E5C
:100AD80053140130DC000530DD006730DE005A2297
:100AE8008024831265088316D7008312660883164C
:100AF800D80083122E088316D900612383160313A6
:100B0800491C8D2D0130DC001030DD002C30DE005A
:100B18005A222B2E53100130DC000130DD00233027
:100B2800DE005A220130D7000030D8008312530863
:100B38008316D9006430DA00DB01B1237008831210
:100B4800D3007008C9001430F400E022700AAB002A
:100B58002B2E831653100130DC000130DD002F30BE
:100B6800DE005A220730D7000030D8002D08D900FF
:100B7800FF30DA00DB01B1237008AD002B2E5310D3
:100B88000130DC000130DD003C30DE005A22083044
:100B9800D7000030D8003908D900FF30DA00DB016F
:100BA800B1237008B9002B2E53100130DC0001303E
:100BB800DD004330DE005A220130D7000030D80073
:100BC8004108D900FF30DA00DB01B1237008C10009
:100BD8002B2E53100130DC000130DD003530DE00F3
:100BE8005A220330D7000030D8002008D900FF303F
:100BF800DA000130DB00B1237008A000700883120E
:100C0800B4002B2E83163F08003A0319392D3F08EC
:100C1800013A0319452D3F08033A0319532D3F089C
:100C2800023A03196C2D3F08053A03198E2D3F0827
:100C3800063A0319AD2D3F08073A0319C32D3F089B
:100C4800083A0319D82D3F08093A0319ED2D080071
:100C580083160313861105100612861206138613CF
:100C68008312861105108613061386120612D020E9
:100C7800D020D020861606168615CA208611D020C8
:100C88008615CA208611D0208615CA208611D02044
:100C980006128615CA208611D0208615CA2086110C
:100CA800861286178615CA208611D0208613061646
:100CB8008615CA20861106128615CA208611D020EC
:100CC8008615CA20861106168615CA208611D020D8
:100CD80006128615CA208611861706178616061666
:0E0CE8008615CA208611D0208316C915080073
:100CF600F1228A110A128000840AD50A0319D60A3B
:080D0600F003031D7B2E080021
:100D0E00831603134912C913C9124911C9100530AC
:100D1E00DC000430DD000130DE000130DF00B621E2
:100D2E0070080319A02EAA0A14302A020318A02E46
:100D3E0053152A080A3A031DA72E53114915C91235
:100D4E000530DC000430DD000130DE00DF01B621AD
:100D5E0070080319B62E531DB62E5311C916053041
:100D6E00DC000430DD000130DE00DF01B62170084A
:100D7E000319C22EAA010530DC000530DD0001305A
:100D8E00DE000130DF00B62170080319D42EA80A48
:100D9E00143028020318D42ED31528080A3A031D3E
:100DAE00DB2ED311C91749120530DC000530DD00EA
:100DBE000130DE00DF01B62170080319EA2ED31DC3
:100DCE00EA2ED31149160530DC000530DD00013066
:100DDE00DE00DF01B62170080319F62EA8010530DA
:100DEE00DC000530DD000130DE000130DF00B62111
:100DFE00700803190F2F0530DC000430DD000130C0
:100E0E00DE000130DF00B621700803190F2FD31456
:100E1E000530DC000530DD000130DE00DF01B621DB
:100E2E00700803192D2F0530DC000430DD00013071
:100E3E00DE00DF01B621700803192D2FD31C2D2FD4
:0E0E4E00D310C912491249114911C9140800E4
:100E5C00E427303083160313850086018312860144
:100E6C0040308B008230831681007D30CF00FF3004
:100E7C00D0007D3083128E0083165008F000F101F3
:100E8C00FF30700583128F00901210120C10831615
:100E9C000C14831210148B170B178B160630810051
:100EAC000614861406158316D101CA01CB012C2613
:100EBC000C30EA00E42087262C25B124FE24831272
:060ECC00E50A612F682F0A
:100FC800233084004D3083120313F0006E308316F3
:100FD800D5000730D6007B26A03084002930831244
:100FE8000313F000BB308316D5000730D6007B26EC
:020FF8000800EF
:100EDC004234723469346C3468346F343A340034CC
:020EEC000534CB
:040EEE004634003452
:020EF2000034CA
:0A0EF4005234653464343A3400349B
:020EFE000534B9
:0E0F0000533470346534653464343A3400344C
:0E0F0E0047347234653465346E343A3400343E
:0C0F1C0042346C34753465343A340034CF
:020F280064342F
:100F2A0043346F347234203466346934783461342B
:020F3A00003481
:020F3C0064341B
:100F3E004334693463346C346F3420346534733421
:100F4E007034653463347434723461346C342134E7
:020F5E0000345D
:020F600000345B
:020F6200003459
:100F6400503475346C34733461346E347434653491
:020F7400003447
:020F7600053440
:020F7800003443
:020F7A00003441
:040F7C000034003409
:020F800000343B
:020F8200043435
:020F8400023435
:020F8600003435
:020F8800003433
:020F8A00003431
:040F8C0020340034D9
:020F900000342B
:100F92004434653473346C34693467346134643492
:060FA2006F34213400341D
:020FA800003413
:0A0FAA005234473442343A34003424
:020FB400003407
:020FB600003405
:020FB800003403
:0E0FBA002034203420342034203420340034FD
:02400E004A2145
:00000001FF
